{
  "contractName": "Casino",
  "abi": [
    {
      "constant": true,
      "inputs": [],
      "name": "numberOfBets",
      "outputs": [
        {
          "name": "",
          "type": "uint256"
        }
      ],
      "payable": false,
      "stateMutability": "view",
      "type": "function"
    },
    {
      "constant": true,
      "inputs": [
        {
          "name": "",
          "type": "address"
        }
      ],
      "name": "playerInfo",
      "outputs": [
        {
          "name": "amountBet",
          "type": "uint256"
        },
        {
          "name": "numberSelected",
          "type": "uint256"
        }
      ],
      "payable": false,
      "stateMutability": "view",
      "type": "function"
    },
    {
      "constant": true,
      "inputs": [],
      "name": "owner",
      "outputs": [
        {
          "name": "",
          "type": "address"
        }
      ],
      "payable": false,
      "stateMutability": "view",
      "type": "function"
    },
    {
      "constant": true,
      "inputs": [],
      "name": "minimumBet",
      "outputs": [
        {
          "name": "",
          "type": "uint256"
        }
      ],
      "payable": false,
      "stateMutability": "view",
      "type": "function"
    },
    {
      "constant": true,
      "inputs": [],
      "name": "maxAmountOfBets",
      "outputs": [
        {
          "name": "",
          "type": "uint256"
        }
      ],
      "payable": false,
      "stateMutability": "view",
      "type": "function"
    },
    {
      "constant": true,
      "inputs": [
        {
          "name": "",
          "type": "uint256"
        }
      ],
      "name": "players",
      "outputs": [
        {
          "name": "",
          "type": "address"
        }
      ],
      "payable": false,
      "stateMutability": "view",
      "type": "function"
    },
    {
      "constant": true,
      "inputs": [],
      "name": "totalBet",
      "outputs": [
        {
          "name": "",
          "type": "uint256"
        }
      ],
      "payable": false,
      "stateMutability": "view",
      "type": "function"
    },
    {
      "inputs": [
        {
          "name": "_minimumBet",
          "type": "uint256"
        }
      ],
      "payable": false,
      "stateMutability": "nonpayable",
      "type": "constructor"
    },
    {
      "payable": true,
      "stateMutability": "payable",
      "type": "fallback"
    },
    {
      "constant": false,
      "inputs": [],
      "name": "kill",
      "outputs": [],
      "payable": false,
      "stateMutability": "nonpayable",
      "type": "function"
    },
    {
      "constant": false,
      "inputs": [
        {
          "name": "numberSelected",
          "type": "uint256"
        }
      ],
      "name": "bet",
      "outputs": [],
      "payable": true,
      "stateMutability": "payable",
      "type": "function"
    },
    {
      "constant": true,
      "inputs": [
        {
          "name": "player",
          "type": "address"
        }
      ],
      "name": "checkPlayerExists",
      "outputs": [
        {
          "name": "",
          "type": "bool"
        }
      ],
      "payable": false,
      "stateMutability": "view",
      "type": "function"
    },
    {
      "constant": false,
      "inputs": [],
      "name": "generateNumberWinner",
      "outputs": [],
      "payable": false,
      "stateMutability": "nonpayable",
      "type": "function"
    },
    {
      "constant": false,
      "inputs": [
        {
          "name": "numberWinner",
          "type": "uint256"
        }
      ],
      "name": "distributePrizes",
      "outputs": [],
      "payable": false,
      "stateMutability": "nonpayable",
      "type": "function"
    }
  ],
  "bytecode": "0x6080604052600360045534801561001557600080fd5b50604051602080610678833981016040525160008054600160a060020a0319163317905580156100455760018190555b50610623806100556000396000f3006080604052600436106100b95763ffffffff7c01000000000000000000000000000000000000000000000000000000006000350416630a50e36181146100bb5780632ca8c6d3146100d05780634081d916146100f757806341c0e1b51461012c5780634b114691146101415780636ca3fc3b1461017b5780637365870b146101935780638da5cb5b1461019e578063c38a8afd146101cf578063e08a96cd146101e4578063f71d96cb146101f9578063fe5e185314610211575b005b3480156100c757600080fd5b506100b9610226565b3480156100dc57600080fd5b506100e5610239565b60408051918252519081900360200190f35b34801561010357600080fd5b50610118600160a060020a036004351661023f565b604080519115158252519081900360200190f35b34801561013857600080fd5b506100b961029d565b34801561014d57600080fd5b50610162600160a060020a03600435166102c0565b6040805192835260208301919091528051918290030190f35b34801561018757600080fd5b506100b96004356102d9565b6100b9600435610406565b3480156101aa57600080fd5b506101b36104d3565b60408051600160a060020a039092168252519081900360200190f35b3480156101db57600080fd5b506100e56104e2565b3480156101f057600080fd5b506100e56104e8565b34801561020557600080fd5b506101b36004356104ee565b34801561021d57600080fd5b506100e5610516565b6001600a430601610236816102d9565b50565b60035481565b6000805b6005548110156102925782600160a060020a031660058281548110151561026657fe5b600091825260209091200154600160a060020a0316141561028a5760019150610297565b600101610243565b600091505b50919050565b600054600160a060020a03163314156102be57600054600160a060020a0316ff5b565b6006602052600090815260409020805460019091015482565b6102e161058d565b6000808080805b60055484101561036457600580548590811061030057fe5b6000918252602080832090910154600160a060020a03168083526006909152604090912060010154909350871415610359578286866064811061033f57fe5b600160a060020a0390921660209290920201526001909401935b6001909301926102e8565b60008511156103fd5750506002546064900460005b848110156103f557600086826064811061038f57fe5b6020020151600160a060020a0316146103ed578581606481106103ae57fe5b6020020151600160a060020a03166108fc839081150290604051600060405180830381858888f193505050501580156103eb573d6000803e3d6000fd5b505b600101610379565b6103fd61051c565b50505050505050565b61040f3361023f565b1561041957600080fd5b6001811015801561042b5750600a8111155b151561043657600080fd5b60015434101561044557600080fd5b33600081815260066020526040812034808255600191820185905560038054830181556005805493840181559093527f036b6384b5eca791c62761152d0c79bb0604c104a5fb6f4eb0703f3154bb3db0909101805473ffffffffffffffffffffffffffffffffffffffff19169093179092556002805490920190915560045490541061023657610236610226565b600054600160a060020a031681565b60015481565b60045481565b60058054829081106104fc57fe5b600091825260209091200154600160a060020a0316905081565b60025481565b6000805b60055482101561057157600580548390811061053857fe5b6000918252602080832090910154600160a060020a03168083526006909152604082208281556001908101929092559201919050610520565b600061057e6005826105ad565b50506000600281905560035550565b610c80604051908101604052806064906020820280388339509192915050565b8154818355818111156105d1576000838152602090206105d19181019083016105d6565b505050565b6105f491905b808211156105f057600081556001016105dc565b5090565b905600a165627a7a7230582029ab6b233982aee4b4f7b8b2261f6fe9b3f392d300e1aa100143f43fbb645c050029",
  "source": "pragma solidity ^0.4.20;\n\ncontract Casino {\n    address public owner;\n    uint256 public minimumBet;\n    uint256 public totalBet;\n    uint256 public numberOfBets;\n    uint256 public maxAmountOfBets = 3;\n\n    address[] public players;\n\n    struct Player {\n        uint256 amountBet;\n        uint256 numberSelected;\n    }\n\n    // The address of the player and => the user info\n    mapping(address => Player) public playerInfo;\n\n    constructor(uint256 _minimumBet) public {\n        owner = msg.sender;\n        if(_minimumBet != 0 ) minimumBet = _minimumBet;\n    }\n\n    function kill() public {\n        if(msg.sender == owner) selfdestruct(owner);\n    }\n\n    // To bet for a number between 1 and 10 both inclusive\n    function bet(uint256 numberSelected) public payable {\n        require(!checkPlayerExists(msg.sender));\n        require(numberSelected >= 1 && numberSelected <= 10);\n        require(msg.value >= minimumBet);\n        playerInfo[msg.sender].amountBet = msg.value;\n        playerInfo[msg.sender].numberSelected = numberSelected;\n        numberOfBets++;\n        players.push(msg.sender);\n        totalBet += msg.value;\n        if(numberOfBets >= maxAmountOfBets) generateNumberWinner();\n    }\n\n    function checkPlayerExists(address player) public constant returns(bool){\n        for(uint256 i = 0; i < players.length; i++){\n            if(players[i] == player) return true;\n        }\n        return false;\n    }\n\n    // Generates a number between 1 and 10 that will be the winner\n    function generateNumberWinner() public {\n        uint256 numberGenerated = block.number % 10 + 1; // This isn't secure\n        distributePrizes(numberGenerated);\n    }\n\n    // Sends the corresponding ether to each winner depending on the total bets\n    function distributePrizes(uint256 numberWinner) public {\n        address[100] memory winners; // We have to create a temporary in memory array with fixed size\n        uint256 count = 0; // This is the count for the array of winners\n        for(uint256 i = 0; i < players.length; i++){\n            address playerAddress = players[i];\n            if(playerInfo[playerAddress].numberSelected == numberWinner){\n                winners[count] = playerAddress;\n                count++;\n            }\n            //delete playerInfo[playerAddress]; // Delete all the players\n        }\n        // players.length = 0; // Delete all the players array\n        if(count > 0) {\n            uint256 winnerEtherAmount = totalBet / winners.length; // How much each winner gets\n            for(uint256 j = 0; j < count; j++){\n                if(winners[j] != address(0)) // Check that the address in this fixed array is not empty\n                winners[j].transfer(winnerEtherAmount);\n            }\n            resetData();\n        }\n    }\n\n    function resetData() private {\n        for(uint256 i = 0; i < players.length; i++){\n            address playerAddress = players[i];\n            delete playerInfo[playerAddress]; // Delete all the players\n        }\n\n        players.length = 0; // Delete all the players array\n        totalBet = 0;\n        numberOfBets = 0;\n    }\n\n    function() public payable {}\n}",
  "sourcePath": "E:\\work\\temp\\week5\\contracts\\Casino.sol",
  "compiler": {
    "name": "solc",
    "version": "0.4.24+commit.e67f0147.Emscripten.clang"
  },
  "schemaVersion": "2.0.0",
  "updatedAt": "2018-05-25T06:05:59.178Z"
}