{
  "contractName": "Student",
  "abi": [
    {
      "constant": true,
      "inputs": [],
      "name": "contractStartTime",
      "outputs": [
        {
          "name": "",
          "type": "uint256"
        }
      ],
      "payable": false,
      "stateMutability": "view",
      "type": "function"
    },
    {
      "constant": true,
      "inputs": [],
      "name": "student",
      "outputs": [
        {
          "name": "",
          "type": "address"
        }
      ],
      "payable": false,
      "stateMutability": "view",
      "type": "function"
    },
    {
      "constant": true,
      "inputs": [],
      "name": "contractDuration",
      "outputs": [
        {
          "name": "",
          "type": "uint256"
        }
      ],
      "payable": false,
      "stateMutability": "view",
      "type": "function"
    },
    {
      "constant": true,
      "inputs": [],
      "name": "owner",
      "outputs": [
        {
          "name": "",
          "type": "address"
        }
      ],
      "payable": false,
      "stateMutability": "view",
      "type": "function"
    },
    {
      "constant": true,
      "inputs": [],
      "name": "amount",
      "outputs": [
        {
          "name": "",
          "type": "uint256"
        }
      ],
      "payable": false,
      "stateMutability": "view",
      "type": "function"
    },
    {
      "inputs": [
        {
          "name": "_student",
          "type": "address"
        },
        {
          "name": "_contractDuration",
          "type": "uint256"
        }
      ],
      "payable": false,
      "stateMutability": "nonpayable",
      "type": "constructor"
    },
    {
      "payable": true,
      "stateMutability": "payable",
      "type": "fallback"
    },
    {
      "constant": false,
      "inputs": [],
      "name": "getMyMoney",
      "outputs": [],
      "payable": false,
      "stateMutability": "nonpayable",
      "type": "function"
    }
  ],
  "bytecode": "0x608060405234801561001057600080fd5b506040516040806102fe83398101604052805160209091015160008054600160a060020a0319908116331790915560018054600160a060020a039094169390911692909217909155600255426003556102908061006e6000396000f3006080604052600436106100775763ffffffff7c01000000000000000000000000000000000000000000000000000000006000350416630c3d51578114610081578063699450e8146100a85780636a246e70146100e65780638da5cb5b146100fb578063aa8c217c14610110578063d7c9a0e314610125575b6004805434019055005b34801561008d57600080fd5b5061009661013c565b60408051918252519081900360200190f35b3480156100b457600080fd5b506100bd610142565b6040805173ffffffffffffffffffffffffffffffffffffffff9092168252519081900360200190f35b3480156100f257600080fd5b5061009661015e565b34801561010757600080fd5b506100bd610164565b34801561011c57600080fd5b50610096610180565b34801561013157600080fd5b5061013a610186565b005b60035481565b60015473ffffffffffffffffffffffffffffffffffffffff1681565b60025481565b60005473ffffffffffffffffffffffffffffffffffffffff1681565b60045481565b600154600090819073ffffffffffffffffffffffffffffffffffffffff1633146101af57600080fd5b60003031116101bd57600080fd5b6018603c8060035442038115156101d057fe5b048115156101da57fe5b048115156101e457fe5b0491506002548210151561020d5760015473ffffffffffffffffffffffffffffffffffffffff16ff5b6004546002548381151561021d57fe5b04029050303181116102605760015460405173ffffffffffffffffffffffffffffffffffffffff9091169082156108fc029083906000818181858888f150505050505b50505600a165627a7a723058203890dcd40e4d3379acebd721ddb1578b0c6ebd355d60fedabaede3426c2af6260029",
  "source": "/*\r\n\tИдея dapp\r\n\r\n\tродители отправяют ребенка на учебу в другой город/страну\r\n\tи определяют ему финансирование на семестр\r\n\tчтобы студент не пропил сразу все в барах с друзьями, родители решают \r\n\tчто деньги ему будут перечилсляться не сразу, а равномерно на протяжении всего семестра\r\n\r\n\tпри формировании контракта вносится:\r\n\t1. адрес студента для выплат\r\n\t2. продолжительность контракта в днях\r\n\r\n\tСтудент вызывает метод getMyMoney() и получает сумму на свой адрес \r\n\r\n*/\r\n\r\npragma solidity ^0.4.20;\r\n\r\ncontract Student {\r\n    address public owner;\r\n    address public student;\r\n    uint256 public contractDuration;\r\n    uint256 public contractStartTime;\r\n    uint256 public amount; // итоговая сумма средств контракта\r\n\r\n    constructor(address _student, uint256 _contractDuration) public {\r\n        owner = msg.sender;\r\n        student = _student;\r\n        contractDuration = _contractDuration;\r\n        contractStartTime = now;\r\n    }\r\n\r\n    function getMyMoney() public {\r\n    \trequire( msg.sender == student );\r\n    \trequire( this.balance > 0 ); // нечего отправлять\r\n\r\n    \tuint256 diff = (now - contractStartTime) / 60 / 60 / 24; // Прошло дней с начала контракта\r\n\r\n    \tif( diff >= contractDuration ) selfdestruct(student); // Если срок контракта истек - перечисляем весь остаток студенту\r\n\r\n    \tuint256 payment = diff / contractDuration * amount; // сумма к выплате на текущий момент\r\n\r\n    \tif ( payment <= this.balance ) student.send(payment);\r\n    }\r\n\r\n    function() public payable {\r\n    \tamount = amount + msg.value;\r\n    }\r\n}",
  "sourcePath": "E:\\work\\temp\\week5\\contracts\\Student.sol",
  "compiler": {
    "name": "solc",
    "version": "0.4.24+commit.e67f0147.Emscripten.clang"
  },
  "schemaVersion": "2.0.0",
  "updatedAt": "2018-05-26T03:51:35.753Z"
}